{
  "contractName": "Remittance",
  "abi": [
    {
      "inputs": [],
      "payable": false,
      "stateMutability": "nonpayable",
      "type": "constructor"
    },
    {
      "constant": true,
      "inputs": [],
      "name": "owner",
      "outputs": [
        {
          "internalType": "address",
          "name": "",
          "type": "address"
        }
      ],
      "payable": false,
      "stateMutability": "view",
      "type": "function"
    },
    {
      "constant": true,
      "inputs": [
        {
          "internalType": "bytes32",
          "name": "",
          "type": "bytes32"
        }
      ],
      "name": "remittances",
      "outputs": [
        {
          "internalType": "bytes32",
          "name": "hash",
          "type": "bytes32"
        },
        {
          "internalType": "uint256",
          "name": "value",
          "type": "uint256"
        }
      ],
      "payable": false,
      "stateMutability": "view",
      "type": "function"
    },
    {
      "constant": false,
      "inputs": [
        {
          "internalType": "address payable",
          "name": "recipient",
          "type": "address"
        },
        {
          "internalType": "bytes32",
          "name": "hash",
          "type": "bytes32"
        }
      ],
      "name": "sendRemittance",
      "outputs": [],
      "payable": true,
      "stateMutability": "payable",
      "type": "function"
    },
    {
      "constant": false,
      "inputs": [
        {
          "internalType": "bytes32",
          "name": "hash",
          "type": "bytes32"
        }
      ],
      "name": "createRemittance",
      "outputs": [],
      "payable": true,
      "stateMutability": "payable",
      "type": "function"
    },
    {
      "constant": false,
      "inputs": [
        {
          "internalType": "bytes32",
          "name": "passphrase1",
          "type": "bytes32"
        },
        {
          "internalType": "bytes32",
          "name": "passphrase2",
          "type": "bytes32"
        }
      ],
      "name": "withdraw",
      "outputs": [],
      "payable": false,
      "stateMutability": "nonpayable",
      "type": "function"
    }
  ],
  "bytecode": "0x608060405234801561001057600080fd5b50336000806101000a81548173ffffffffffffffffffffffffffffffffffffffff021916908373ffffffffffffffffffffffffffffffffffffffff16021790555061057b806100606000396000f3fe60806040526004361061004a5760003560e01c8063498835241461004f5780635e1000e31461009d57806363615149146100cb5780638da5cb5b146101105780639c922d2a14610167575b600080fd5b61009b6004803603604081101561006557600080fd5b81019080803573ffffffffffffffffffffffffffffffffffffffff169060200190929190803590602001909291905050506101bd565b005b6100c9600480360360208110156100b357600080fd5b8101908080359060200190929190505050610284565b005b3480156100d757600080fd5b5061010e600480360360408110156100ee57600080fd5b8101908080359060200190929190803590602001909291905050506103a1565b005b34801561011c57600080fd5b506101256104fd565b604051808273ffffffffffffffffffffffffffffffffffffffff1673ffffffffffffffffffffffffffffffffffffffff16815260200191505060405180910390f35b34801561017357600080fd5b506101a06004803603602081101561018a57600080fd5b8101908080359060200190929190505050610522565b604051808381526020018281526020019250505060405180910390f35b60003411610233576040517f08c379a00000000000000000000000000000000000000000000000000000000081526004018080602001828103825260208152602001807f56616c7565206d7573742062652067726561746572207468616e207a65726f2e81525060200191505060405180910390fd5b60003490508273ffffffffffffffffffffffffffffffffffffffff166108fc829081150290604051600060405180830381858888f1935050505015801561027e573d6000803e3d6000fd5b50505050565b600034116102fa576040517f08c379a00000000000000000000000000000000000000000000000000000000081526004018080602001828103825260208152602001807f56616c7565206d7573742062652067726561746572207468616e207a65726f2e81525060200191505060405180910390fd5b6000600160008381526020019081526020016000209050600081600101541461038b576040517f08c379a000000000000000000000000000000000000000000000000000000000815260040180806020018281038252601a8152602001807f52656d697474616e636520616c7265616479206578697374732e00000000000081525060200191505060405180910390fd5b8181600001819055503481600101819055505050565b6000828233604051602001808481526020018381526020018273ffffffffffffffffffffffffffffffffffffffff1673ffffffffffffffffffffffffffffffffffffffff1660601b815260140193505050506040516020818303038152906040528051906020012090506000600160008381526020019081526020016000209050600081600101541161049c576040517f08c379a000000000000000000000000000000000000000000000000000000000815260040180806020018281038252601a8152602001807f52656d697474616e636520646f6573206e6f742065786973742e00000000000081525060200191505060405180910390fd5b600081600101549050600082600101819055503373ffffffffffffffffffffffffffffffffffffffff166108fc829081150290604051600060405180830381858888f193505050501580156104f5573d6000803e3d6000fd5b505050505050565b6000809054906101000a900473ffffffffffffffffffffffffffffffffffffffff1681565b6001602052806000526040600020600091509050806000015490806001015490508256fea265627a7a723158202f11bc415d6338b3c43009fcea6aa4e18d196272218e280d2da80140b0ff02f364736f6c63430005100032",
  "source": "// SPDX-License-Identifier:MIT \npragma solidity 0.5.16;\n    \ncontract Remittance {\n    address public owner;\n\n    constructor() public {\n        owner = msg.sender;\n    }\n\n    struct RemittanceStruct {\n        bytes32 hash;\n        uint256 value;\n    }\n\n    mapping (bytes32 => RemittanceStruct) public remittances;\n\n    function sendRemittance(address payable recipient, bytes32 hash) public payable {\n        require(msg.value > 0, \"Value must be greater than zero.\");\n        uint256 amount = msg.value;\n        recipient.transfer(amount);\n    }\n\n    function createRemittance(bytes32 hash) public payable {\n        require(msg.value > 0, \"Value must be greater than zero.\");\n\n        RemittanceStruct storage remittance = remittances[hash];\n        require(remittance.value == 0, \"Remittance already exists.\");\n\n        remittance.hash = hash;\n        remittance.value = msg.value;\n    }\n\n    function withdraw(bytes32 passphrase1, bytes32 passphrase2) public {\n        bytes32 hash = keccak256(abi.encodePacked(passphrase1, passphrase2, msg.sender));\n        RemittanceStruct storage remittance = remittances[hash];\n        require(remittance.value > 0, \"Remittance does not exist.\");\n\n        uint256 value = remittance.value;\n        remittance.value = 0;\n        msg.sender.transfer(value);\n    }\n}\n",
  "sourcePath": "/home/lanacreates/remittance-project/contracts/Remittance.sol",
  "compiler": {
    "name": "solc",
    "version": "0.5.16+commit.9c3226ce.Emscripten.clang"
  },
  "schemaVersion": "3.4.13",
  "updatedAt": "2023-03-06T01:17:18.470Z",
  "networkType": "ethereum",
  "devdoc": {
    "methods": {}
  },
  "userdoc": {
    "methods": {}
  }
}